{
  "contractName": "CodeNFTMarket",
  "abi": [
    {
      "inputs": [],
      "stateMutability": "nonpayable",
      "type": "constructor"
    },
    {
      "anonymous": false,
      "inputs": [
        {
          "indexed": true,
          "internalType": "uint256",
          "name": "itemId",
          "type": "uint256"
        },
        {
          "indexed": true,
          "internalType": "address",
          "name": "nftContract",
          "type": "address"
        },
        {
          "indexed": true,
          "internalType": "uint256",
          "name": "tokenId",
          "type": "uint256"
        },
        {
          "indexed": false,
          "internalType": "address",
          "name": "seller",
          "type": "address"
        },
        {
          "indexed": false,
          "internalType": "address",
          "name": "owner",
          "type": "address"
        },
        {
          "indexed": false,
          "internalType": "uint256",
          "name": "price",
          "type": "uint256"
        }
      ],
      "name": "MarketItemCreated",
      "type": "event"
    },
    {
      "anonymous": false,
      "inputs": [
        {
          "indexed": false,
          "internalType": "address",
          "name": "from",
          "type": "address"
        },
        {
          "indexed": false,
          "internalType": "uint256",
          "name": "tokenId",
          "type": "uint256"
        }
      ],
      "name": "Message",
      "type": "event"
    },
    {
      "inputs": [
        {
          "internalType": "uint256",
          "name": "marketItemId",
          "type": "uint256"
        }
      ],
      "name": "getMarketItem",
      "outputs": [
        {
          "components": [
            {
              "internalType": "uint256",
              "name": "itemId",
              "type": "uint256"
            },
            {
              "internalType": "address",
              "name": "nftContract",
              "type": "address"
            },
            {
              "internalType": "uint256",
              "name": "tokenId",
              "type": "uint256"
            },
            {
              "internalType": "address payable",
              "name": "seller",
              "type": "address"
            },
            {
              "internalType": "address payable",
              "name": "owner",
              "type": "address"
            },
            {
              "internalType": "uint256",
              "name": "price",
              "type": "uint256"
            }
          ],
          "internalType": "struct CodeNFTMarket.MarketItem",
          "name": "",
          "type": "tuple"
        }
      ],
      "stateMutability": "view",
      "type": "function",
      "constant": true
    },
    {
      "inputs": [
        {
          "internalType": "address",
          "name": "nftContract",
          "type": "address"
        },
        {
          "internalType": "uint256",
          "name": "tokenId",
          "type": "uint256"
        },
        {
          "internalType": "uint256",
          "name": "price",
          "type": "uint256"
        }
      ],
      "name": "createMarketItem",
      "outputs": [],
      "stateMutability": "payable",
      "type": "function",
      "payable": true
    },
    {
      "inputs": [
        {
          "internalType": "address",
          "name": "nftContract",
          "type": "address"
        },
        {
          "internalType": "uint256",
          "name": "itemId",
          "type": "uint256"
        }
      ],
      "name": "createMarketSale",
      "outputs": [],
      "stateMutability": "payable",
      "type": "function",
      "payable": true
    },
    {
      "inputs": [],
      "name": "fetchMarketItems",
      "outputs": [
        {
          "components": [
            {
              "internalType": "uint256",
              "name": "itemId",
              "type": "uint256"
            },
            {
              "internalType": "address",
              "name": "nftContract",
              "type": "address"
            },
            {
              "internalType": "uint256",
              "name": "tokenId",
              "type": "uint256"
            },
            {
              "internalType": "address payable",
              "name": "seller",
              "type": "address"
            },
            {
              "internalType": "address payable",
              "name": "owner",
              "type": "address"
            },
            {
              "internalType": "uint256",
              "name": "price",
              "type": "uint256"
            }
          ],
          "internalType": "struct CodeNFTMarket.MarketItem[]",
          "name": "",
          "type": "tuple[]"
        }
      ],
      "stateMutability": "view",
      "type": "function",
      "constant": true
    },
    {
      "inputs": [],
      "name": "fetchMyNFTs",
      "outputs": [
        {
          "components": [
            {
              "internalType": "uint256",
              "name": "itemId",
              "type": "uint256"
            },
            {
              "internalType": "address",
              "name": "nftContract",
              "type": "address"
            },
            {
              "internalType": "uint256",
              "name": "tokenId",
              "type": "uint256"
            },
            {
              "internalType": "address payable",
              "name": "seller",
              "type": "address"
            },
            {
              "internalType": "address payable",
              "name": "owner",
              "type": "address"
            },
            {
              "internalType": "uint256",
              "name": "price",
              "type": "uint256"
            }
          ],
          "internalType": "struct CodeNFTMarket.MarketItem[]",
          "name": "",
          "type": "tuple[]"
        }
      ],
      "stateMutability": "view",
      "type": "function",
      "constant": true
    }
  ],
  "bytecode": "0x608060405267016345785d8a000060045534801561001c57600080fd5b50600160008190555033600360006101000a81548173ffffffffffffffffffffffffffffffffffffffff021916908373ffffffffffffffffffffffffffffffffffffffff1602179055506115a5806100756000396000f3fe60806040526004361061004a5760003560e01c80630f08efe01461004f578063202e37401461007a57806358eb2df5146100a5578063c23b139e146100c1578063c7be7a49146100dd575b600080fd5b34801561005b57600080fd5b5061006461011a565b6040516100719190611041565b60405180910390f35b34801561008657600080fd5b5061008f6103c9565b60405161009c9190611041565b60405180910390f35b6100bf60048036038101906100ba91906110c0565b6106fc565b005b6100db60048036038101906100d69190611113565b610a29565b005b3480156100e957600080fd5b5061010460048036038101906100ff9190611153565b610cb3565b60405161011191906111fb565b60405180910390f35b606060006101286001610e00565b905060006101366002610e00565b6101406001610e00565b61014a9190611245565b90506000808267ffffffffffffffff81111561016957610168611279565b5b6040519080825280602002602001820160405280156101a257816020015b61018f610e24565b8152602001906001900390816101875790505b50905060005b848110156103be57600073ffffffffffffffffffffffffffffffffffffffff16600560006001846101d991906112a8565b815260200190815260200160002060040160009054906101000a900473ffffffffffffffffffffffffffffffffffffffff1673ffffffffffffffffffffffffffffffffffffffff1614156103ab57600060018261023691906112a8565b90506000600560008381526020019081526020016000209050806040518060c0016040529081600082015481526020016001820160009054906101000a900473ffffffffffffffffffffffffffffffffffffffff1673ffffffffffffffffffffffffffffffffffffffff1673ffffffffffffffffffffffffffffffffffffffff168152602001600282015481526020016003820160009054906101000a900473ffffffffffffffffffffffffffffffffffffffff1673ffffffffffffffffffffffffffffffffffffffff1673ffffffffffffffffffffffffffffffffffffffff1681526020016004820160009054906101000a900473ffffffffffffffffffffffffffffffffffffffff1673ffffffffffffffffffffffffffffffffffffffff1673ffffffffffffffffffffffffffffffffffffffff16815260200160058201548152505084868151811061038e5761038d6112fe565b5b60200260200101819052506001856103a691906112a8565b945050505b80806103b69061132d565b9150506101a8565b508094505050505090565b606060006103d76001610e00565b905060008060005b83811015610480573373ffffffffffffffffffffffffffffffffffffffff166005600060018461040f91906112a8565b815260200190815260200160002060040160009054906101000a900473ffffffffffffffffffffffffffffffffffffffff1673ffffffffffffffffffffffffffffffffffffffff16141561046d5760018361046a91906112a8565b92505b80806104789061132d565b9150506103df565b5060008267ffffffffffffffff81111561049d5761049c611279565b5b6040519080825280602002602001820160405280156104d657816020015b6104c3610e24565b8152602001906001900390816104bb5790505b50905060005b848110156106f1573373ffffffffffffffffffffffffffffffffffffffff166005600060018461050c91906112a8565b815260200190815260200160002060040160009054906101000a900473ffffffffffffffffffffffffffffffffffffffff1673ffffffffffffffffffffffffffffffffffffffff1614156106de57600060018261056991906112a8565b90506000600560008381526020019081526020016000209050806040518060c0016040529081600082015481526020016001820160009054906101000a900473ffffffffffffffffffffffffffffffffffffffff1673ffffffffffffffffffffffffffffffffffffffff1673ffffffffffffffffffffffffffffffffffffffff168152602001600282015481526020016003820160009054906101000a900473ffffffffffffffffffffffffffffffffffffffff1673ffffffffffffffffffffffffffffffffffffffff1673ffffffffffffffffffffffffffffffffffffffff1681526020016004820160009054906101000a900473ffffffffffffffffffffffffffffffffffffffff1673ffffffffffffffffffffffffffffffffffffffff1673ffffffffffffffffffffffffffffffffffffffff1681526020016005820154815250508486815181106106c1576106c06112fe565b5b60200260200101819052506001856106d991906112a8565b945050505b80806106e99061132d565b9150506104dc565b508094505050505090565b60026000541415610742576040517f08c379a0000000000000000000000000000000000000000000000000000000008152600401610739906113d3565b60405180910390fd5b60026000819055506000811161078d576040517f08c379a00000000000000000000000000000000000000000000000000000000081526004016107849061143f565b60405180910390fd5b7fd6896bf6b58a373f3507be627a6c1665b85853a848393258c850171275e5016d33836040516107be92919061147d565b60405180910390a16107d06001610e0e565b60006107dc6001610e00565b90508373ffffffffffffffffffffffffffffffffffffffff166323b872dd3330866040518463ffffffff1660e01b815260040161081b939291906114a6565b600060405180830381600087803b15801561083557600080fd5b505af1158015610849573d6000803e3d6000fd5b505050506040518060c001604052808281526020018573ffffffffffffffffffffffffffffffffffffffff1681526020018481526020013373ffffffffffffffffffffffffffffffffffffffff168152602001600073ffffffffffffffffffffffffffffffffffffffff16815260200183815250600560008381526020019081526020016000206000820151816000015560208201518160010160006101000a81548173ffffffffffffffffffffffffffffffffffffffff021916908373ffffffffffffffffffffffffffffffffffffffff1602179055506040820151816002015560608201518160030160006101000a81548173ffffffffffffffffffffffffffffffffffffffff021916908373ffffffffffffffffffffffffffffffffffffffff16021790555060808201518160040160006101000a81548173ffffffffffffffffffffffffffffffffffffffff021916908373ffffffffffffffffffffffffffffffffffffffff16021790555060a08201518160050155905050828473ffffffffffffffffffffffffffffffffffffffff16827f2ad024d53a0dc50c130967f8d4941927ee087ea31394cebb2b9599d3706c9c0033600087604051610a13939291906114a6565b60405180910390a4506001600081905550505050565b60026000541415610a6f576040517f08c379a0000000000000000000000000000000000000000000000000000000008152600401610a66906113d3565b60405180910390fd5b6002600081905550600060056000838152602001908152602001600020600501549050600060056000848152602001908152602001600020600201549050813414610aef576040517f08c379a0000000000000000000000000000000000000000000000000000000008152600401610ae69061154f565b60405180910390fd5b6005600084815260200190815260200160002060030160009054906101000a900473ffffffffffffffffffffffffffffffffffffffff1673ffffffffffffffffffffffffffffffffffffffff166108fc349081150290604051600060405180830381858888f19350505050158015610b6b573d6000803e3d6000fd5b508373ffffffffffffffffffffffffffffffffffffffff166323b872dd3033846040518463ffffffff1660e01b8152600401610ba9939291906114a6565b600060405180830381600087803b158015610bc357600080fd5b505af1158015610bd7573d6000803e3d6000fd5b50505050336005600085815260200190815260200160002060040160006101000a81548173ffffffffffffffffffffffffffffffffffffffff021916908373ffffffffffffffffffffffffffffffffffffffff160217905550610c3a6002610e0e565b600360009054906101000a900473ffffffffffffffffffffffffffffffffffffffff1673ffffffffffffffffffffffffffffffffffffffff166108fc6004549081150290604051600060405180830381858888f19350505050158015610ca4573d6000803e3d6000fd5b50505060016000819055505050565b610cbb610e24565b600560008381526020019081526020016000206040518060c0016040529081600082015481526020016001820160009054906101000a900473ffffffffffffffffffffffffffffffffffffffff1673ffffffffffffffffffffffffffffffffffffffff1673ffffffffffffffffffffffffffffffffffffffff168152602001600282015481526020016003820160009054906101000a900473ffffffffffffffffffffffffffffffffffffffff1673ffffffffffffffffffffffffffffffffffffffff1673ffffffffffffffffffffffffffffffffffffffff1681526020016004820160009054906101000a900473ffffffffffffffffffffffffffffffffffffffff1673ffffffffffffffffffffffffffffffffffffffff1673ffffffffffffffffffffffffffffffffffffffff1681526020016005820154815250509050919050565b600081600001549050919050565b6001816000016000828254019250508190555050565b6040518060c0016040528060008152602001600073ffffffffffffffffffffffffffffffffffffffff16815260200160008152602001600073ffffffffffffffffffffffffffffffffffffffff168152602001600073ffffffffffffffffffffffffffffffffffffffff168152602001600081525090565b600081519050919050565b600082825260208201905092915050565b6000819050602082019050919050565b6000819050919050565b610edb81610ec8565b82525050565b600073ffffffffffffffffffffffffffffffffffffffff82169050919050565b6000610f0c82610ee1565b9050919050565b610f1c81610f01565b82525050565b6000610f2d82610ee1565b9050919050565b610f3d81610f22565b82525050565b60c082016000820151610f596000850182610ed2565b506020820151610f6c6020850182610f13565b506040820151610f7f6040850182610ed2565b506060820151610f926060850182610f34565b506080820151610fa56080850182610f34565b5060a0820151610fb860a0850182610ed2565b50505050565b6000610fca8383610f43565b60c08301905092915050565b6000602082019050919050565b6000610fee82610e9c565b610ff88185610ea7565b935061100383610eb8565b8060005b8381101561103457815161101b8882610fbe565b975061102683610fd6565b925050600181019050611007565b5085935050505092915050565b6000602082019050818103600083015261105b8184610fe3565b905092915050565b600080fd5b61107181610f01565b811461107c57600080fd5b50565b60008135905061108e81611068565b92915050565b61109d81610ec8565b81146110a857600080fd5b50565b6000813590506110ba81611094565b92915050565b6000806000606084860312156110d9576110d8611063565b5b60006110e78682870161107f565b93505060206110f8868287016110ab565b9250506040611109868287016110ab565b9150509250925092565b6000806040838503121561112a57611129611063565b5b60006111388582860161107f565b9250506020611149858286016110ab565b9150509250929050565b60006020828403121561116957611168611063565b5b6000611177848285016110ab565b91505092915050565b60c0820160008201516111966000850182610ed2565b5060208201516111a96020850182610f13565b5060408201516111bc6040850182610ed2565b5060608201516111cf6060850182610f34565b5060808201516111e26080850182610f34565b5060a08201516111f560a0850182610ed2565b50505050565b600060c0820190506112106000830184611180565b92915050565b7f4e487b7100000000000000000000000000000000000000000000000000000000600052601160045260246000fd5b600061125082610ec8565b915061125b83610ec8565b92508282101561126e5761126d611216565b5b828203905092915050565b7f4e487b7100000000000000000000000000000000000000000000000000000000600052604160045260246000fd5b60006112b382610ec8565b91506112be83610ec8565b9250827fffffffffffffffffffffffffffffffffffffffffffffffffffffffffffffffff038211156112f3576112f2611216565b5b828201905092915050565b7f4e487b7100000000000000000000000000000000000000000000000000000000600052603260045260246000fd5b600061133882610ec8565b91507fffffffffffffffffffffffffffffffffffffffffffffffffffffffffffffffff82141561136b5761136a611216565b5b600182019050919050565b600082825260208201905092915050565b7f5265656e7472616e637947756172643a207265656e7472616e742063616c6c00600082015250565b60006113bd601f83611376565b91506113c882611387565b602082019050919050565b600060208201905081810360008301526113ec816113b0565b9050919050565b7f5072696365206d757374206265206174206c6561737420312077656900000000600082015250565b6000611429601c83611376565b9150611434826113f3565b602082019050919050565b600060208201905081810360008301526114588161141c565b9050919050565b61146881610f01565b82525050565b61147781610ec8565b82525050565b6000604082019050611492600083018561145f565b61149f602083018461146e565b9392505050565b60006060820190506114bb600083018661145f565b6114c8602083018561145f565b6114d5604083018461146e565b949350505050565b7f506c65617365207375626d6974207468652061736b696e67207072696365206960008201527f6e206f7264657220746f20636f6d706c65746520746865207075726368617365602082015250565b6000611539604083611376565b9150611544826114dd565b604082019050919050565b600060208201905081810360008301526115688161152c565b905091905056fea2646970667358221220514d7da151409217a97bfe1e19a3fd60b85133ea32c2b81f72e31d6600fd66cd64736f6c634300080b0033",
  "immutableReferences": {},
  "source": "pragma solidity ^0.8.0;\n\nimport \"@openzeppelin/contracts/utils/Counters.sol\";\nimport \"@openzeppelin/contracts/token/ERC721/extensions/ERC721URIStorage.sol\";\nimport \"@openzeppelin/contracts/security/ReentrancyGuard.sol\";\nimport \"@openzeppelin/contracts/token/ERC721/ERC721.sol\";\n\ncontract CodeNFT is ERC721URIStorage {\n    using Counters for Counters.Counter;\n    Counters.Counter private _tokenIds;\n    address contractAddress;\n\n    constructor() ERC721(\"Code NFT\", \"CODE\") {\n    }\n\n    function createToken(address marketplaceAddress, string memory tokenURI) public returns (uint) {\n        contractAddress = marketplaceAddress;\n        _tokenIds.increment();\n        uint256 newItemId = _tokenIds.current();\n\n        _mint(msg.sender, newItemId);\n        _setTokenURI(newItemId, tokenURI);\n        approve(contractAddress, newItemId);\n        return newItemId;\n    }\n    \n    function getLatestTokenId() public view returns (uint256) {\n        return _tokenIds.current();\n    }\n}\n\ncontract CodeNFTMarket is ReentrancyGuard {\n  using Counters for Counters.Counter;\n  Counters.Counter private _itemIds;\n  Counters.Counter private _itemsSold;\n\n  address payable owner;\n  uint256 listingPrice = 0.1 ether;\n\n  constructor() {\n    owner = payable(msg.sender);\n  }\n\n  struct MarketItem {\n    uint itemId;\n    address nftContract;\n    uint256 tokenId;\n    address payable seller;\n    address payable owner;\n    uint256 price;\n  }\n\n  mapping(uint256 => MarketItem) private idToMarketItem;\n\n  event MarketItemCreated (\n    uint indexed itemId,\n    address indexed nftContract,\n    uint256 indexed tokenId,\n    address seller,\n    address owner,\n    uint256 price\n  );\n\n  function getMarketItem(uint256 marketItemId) public view returns (MarketItem memory) {\n    return idToMarketItem[marketItemId];\n  }\n\n  \n\n  event Message (\n      address from,\n     uint256 tokenId  \n  );\n\n\n  function createMarketItem(\n    address nftContract,\n    uint256 tokenId,\n    uint256 price\n  ) public payable nonReentrant {\n    require(price > 0, \"Price must be at least 1 wei\");\n    // require(msg.value == listingPrice, \"Price must be equal to listing price\");\n\n    emit Message(msg.sender, tokenId);\n    _itemIds.increment();\n    uint256 itemId = _itemIds.current();\n  \n    IERC721(nftContract).transferFrom(msg.sender, address(this), tokenId);\n\n    idToMarketItem[itemId] =  MarketItem(\n      itemId,\n      nftContract,\n      tokenId,\n      payable(msg.sender),\n      payable(address(0)),\n      price\n    );\n\n\n    emit MarketItemCreated(\n      itemId,\n      nftContract,\n      tokenId,\n      msg.sender,\n      address(0),\n      price\n    );\n  }\n\n  function createMarketSale(\n    address nftContract,\n    uint256 itemId\n    ) public payable nonReentrant {\n    uint price = idToMarketItem[itemId].price;\n    uint tokenId = idToMarketItem[itemId].tokenId;\n    require(msg.value == price, \"Please submit the asking price in order to complete the purchase\");\n\n    idToMarketItem[itemId].seller.transfer(msg.value);\n    IERC721(nftContract).transferFrom(address(this), msg.sender, tokenId);\n    idToMarketItem[itemId].owner = payable(msg.sender);\n    _itemsSold.increment();\n    payable(owner).transfer(listingPrice);\n  }\n\n  function fetchMarketItems() public view returns (MarketItem[] memory) {\n    uint itemCount = _itemIds.current();\n    uint unsoldItemCount = _itemIds.current() - _itemsSold.current();\n    uint currentIndex = 0;\n\n    MarketItem[] memory items = new MarketItem[](unsoldItemCount);\n    for (uint i = 0; i < itemCount; i++) {\n      if (idToMarketItem[i + 1].owner == address(0)) {\n        uint currentId = i + 1;\n        MarketItem storage currentItem = idToMarketItem[currentId];\n        items[currentIndex] = currentItem;\n        currentIndex += 1;\n      }\n    }\n   \n    return items;\n  }\n\n  function fetchMyNFTs() public view returns (MarketItem[] memory) {\n    uint totalItemCount = _itemIds.current();\n    uint itemCount = 0;\n    uint currentIndex = 0;\n\n    for (uint i = 0; i < totalItemCount; i++) {\n      if (idToMarketItem[i + 1].owner == msg.sender) {\n        itemCount += 1;\n      }\n    }\n\n    MarketItem[] memory items = new MarketItem[](itemCount);\n    for (uint i = 0; i < totalItemCount; i++) {\n      if (idToMarketItem[i + 1].owner == msg.sender) {\n        uint currentId = i + 1;\n        MarketItem storage currentItem = idToMarketItem[currentId];\n        items[currentIndex] = currentItem;\n        currentIndex += 1;\n      }\n    }\n   \n    return items;\n  }\n}",
  "sourcePath": "/Users/osfy/Documents/FlutterProjects/plugins/CodeNFT/contracts/CodeNFT.sol",
  "compiler": {
    "name": "solc",
    "version": "0.8.11+commit.d7f03943.Emscripten.clang"
  },
  "schemaVersion": "3.4.1",
  "updatedAt": "2022-01-28T03:59:44.066Z",
  "networkType": "ethereum",
  "devdoc": {
    "kind": "dev",
    "methods": {},
    "version": 1
  },
  "userdoc": {
    "kind": "user",
    "methods": {},
    "version": 1
  }
}