{
  "contractName": "CodeNFT",
  "abi": [
    {
      "inputs": [],
      "stateMutability": "nonpayable",
      "type": "constructor"
    },
    {
      "anonymous": false,
      "inputs": [
        {
          "indexed": true,
          "internalType": "address",
          "name": "owner",
          "type": "address"
        },
        {
          "indexed": true,
          "internalType": "address",
          "name": "approved",
          "type": "address"
        },
        {
          "indexed": true,
          "internalType": "uint256",
          "name": "tokenId",
          "type": "uint256"
        }
      ],
      "name": "Approval",
      "type": "event"
    },
    {
      "anonymous": false,
      "inputs": [
        {
          "indexed": true,
          "internalType": "address",
          "name": "owner",
          "type": "address"
        },
        {
          "indexed": true,
          "internalType": "address",
          "name": "operator",
          "type": "address"
        },
        {
          "indexed": false,
          "internalType": "bool",
          "name": "approved",
          "type": "bool"
        }
      ],
      "name": "ApprovalForAll",
      "type": "event"
    },
    {
      "anonymous": false,
      "inputs": [
        {
          "indexed": true,
          "internalType": "address",
          "name": "from",
          "type": "address"
        },
        {
          "indexed": true,
          "internalType": "address",
          "name": "to",
          "type": "address"
        },
        {
          "indexed": true,
          "internalType": "uint256",
          "name": "tokenId",
          "type": "uint256"
        }
      ],
      "name": "Transfer",
      "type": "event"
    },
    {
      "inputs": [
        {
          "internalType": "address",
          "name": "to",
          "type": "address"
        },
        {
          "internalType": "uint256",
          "name": "tokenId",
          "type": "uint256"
        }
      ],
      "name": "approve",
      "outputs": [],
      "stateMutability": "nonpayable",
      "type": "function"
    },
    {
      "inputs": [
        {
          "internalType": "address",
          "name": "owner",
          "type": "address"
        }
      ],
      "name": "balanceOf",
      "outputs": [
        {
          "internalType": "uint256",
          "name": "",
          "type": "uint256"
        }
      ],
      "stateMutability": "view",
      "type": "function",
      "constant": true
    },
    {
      "inputs": [
        {
          "internalType": "uint256",
          "name": "tokenId",
          "type": "uint256"
        }
      ],
      "name": "getApproved",
      "outputs": [
        {
          "internalType": "address",
          "name": "",
          "type": "address"
        }
      ],
      "stateMutability": "view",
      "type": "function",
      "constant": true
    },
    {
      "inputs": [
        {
          "internalType": "address",
          "name": "owner",
          "type": "address"
        },
        {
          "internalType": "address",
          "name": "operator",
          "type": "address"
        }
      ],
      "name": "isApprovedForAll",
      "outputs": [
        {
          "internalType": "bool",
          "name": "",
          "type": "bool"
        }
      ],
      "stateMutability": "view",
      "type": "function",
      "constant": true
    },
    {
      "inputs": [],
      "name": "name",
      "outputs": [
        {
          "internalType": "string",
          "name": "",
          "type": "string"
        }
      ],
      "stateMutability": "view",
      "type": "function",
      "constant": true
    },
    {
      "inputs": [
        {
          "internalType": "uint256",
          "name": "tokenId",
          "type": "uint256"
        }
      ],
      "name": "ownerOf",
      "outputs": [
        {
          "internalType": "address",
          "name": "",
          "type": "address"
        }
      ],
      "stateMutability": "view",
      "type": "function",
      "constant": true
    },
    {
      "inputs": [
        {
          "internalType": "address",
          "name": "from",
          "type": "address"
        },
        {
          "internalType": "address",
          "name": "to",
          "type": "address"
        },
        {
          "internalType": "uint256",
          "name": "tokenId",
          "type": "uint256"
        }
      ],
      "name": "safeTransferFrom",
      "outputs": [],
      "stateMutability": "nonpayable",
      "type": "function"
    },
    {
      "inputs": [
        {
          "internalType": "address",
          "name": "from",
          "type": "address"
        },
        {
          "internalType": "address",
          "name": "to",
          "type": "address"
        },
        {
          "internalType": "uint256",
          "name": "tokenId",
          "type": "uint256"
        },
        {
          "internalType": "bytes",
          "name": "_data",
          "type": "bytes"
        }
      ],
      "name": "safeTransferFrom",
      "outputs": [],
      "stateMutability": "nonpayable",
      "type": "function"
    },
    {
      "inputs": [
        {
          "internalType": "address",
          "name": "operator",
          "type": "address"
        },
        {
          "internalType": "bool",
          "name": "approved",
          "type": "bool"
        }
      ],
      "name": "setApprovalForAll",
      "outputs": [],
      "stateMutability": "nonpayable",
      "type": "function"
    },
    {
      "inputs": [
        {
          "internalType": "bytes4",
          "name": "interfaceId",
          "type": "bytes4"
        }
      ],
      "name": "supportsInterface",
      "outputs": [
        {
          "internalType": "bool",
          "name": "",
          "type": "bool"
        }
      ],
      "stateMutability": "view",
      "type": "function",
      "constant": true
    },
    {
      "inputs": [],
      "name": "symbol",
      "outputs": [
        {
          "internalType": "string",
          "name": "",
          "type": "string"
        }
      ],
      "stateMutability": "view",
      "type": "function",
      "constant": true
    },
    {
      "inputs": [
        {
          "internalType": "uint256",
          "name": "tokenId",
          "type": "uint256"
        }
      ],
      "name": "tokenURI",
      "outputs": [
        {
          "internalType": "string",
          "name": "",
          "type": "string"
        }
      ],
      "stateMutability": "view",
      "type": "function",
      "constant": true
    },
    {
      "inputs": [
        {
          "internalType": "address",
          "name": "from",
          "type": "address"
        },
        {
          "internalType": "address",
          "name": "to",
          "type": "address"
        },
        {
          "internalType": "uint256",
          "name": "tokenId",
          "type": "uint256"
        }
      ],
      "name": "transferFrom",
      "outputs": [],
      "stateMutability": "nonpayable",
      "type": "function"
    },
    {
      "inputs": [
        {
          "internalType": "address",
          "name": "marketplaceAddress",
          "type": "address"
        },
        {
          "internalType": "string",
          "name": "tokenURI",
          "type": "string"
        }
      ],
      "name": "createToken",
      "outputs": [
        {
          "internalType": "uint256",
          "name": "",
          "type": "uint256"
        }
      ],
      "stateMutability": "nonpayable",
      "type": "function"
    },
    {
      "inputs": [],
      "name": "getLatestTokenId",
      "outputs": [
        {
          "internalType": "uint256",
          "name": "",
          "type": "uint256"
        }
      ],
      "stateMutability": "view",
      "type": "function",
      "constant": true
    }
  ],
  "bytecode": "0x60806040523480156200001157600080fd5b506040518060400160405280600881526020017f436f6465204e46540000000000000000000000000000000000000000000000008152506040518060400160405280600481526020017f434f444500000000000000000000000000000000000000000000000000000000815250816000908051906020019062000096929190620000b8565b508060019080519060200190620000af929190620000b8565b505050620001cd565b828054620000c69062000197565b90600052602060002090601f016020900481019282620000ea576000855562000136565b82601f106200010557805160ff191683800117855562000136565b8280016001018555821562000136579182015b828111156200013557825182559160200191906001019062000118565b5b50905062000145919062000149565b5090565b5b80821115620001645760008160009055506001016200014a565b5090565b7f4e487b7100000000000000000000000000000000000000000000000000000000600052602260045260246000fd5b60006002820490506001821680620001b057607f821691505b60208210811415620001c757620001c662000168565b5b50919050565b612c3b80620001dd6000396000f3fe608060405234801561001057600080fd5b50600436106100f55760003560e01c806342842e0e11610097578063a22cb46511610066578063a22cb46514610298578063b88d4fde146102b4578063c87b56dd146102d0578063e985e9c514610300576100f5565b806342842e0e146101fe5780636352211e1461021a57806370a082311461024a57806395d89b411461027a576100f5565b8063081812fc116100d3578063081812fc14610178578063095ea7b3146101a857806323b872dd146101c457806325d112a9146101e0576100f5565b806301382807146100fa57806301ffc9a71461012a57806306fdde031461015a575b600080fd5b610114600480360381019061010f9190611ae9565b610330565b6040516101219190611b5e565b60405180910390f35b610144600480360381019061013f9190611bd1565b6103d5565b6040516101519190611c19565b60405180910390f35b6101626104b7565b60405161016f9190611cbc565b60405180910390f35b610192600480360381019061018d9190611d0a565b610549565b60405161019f9190611d46565b60405180910390f35b6101c260048036038101906101bd9190611d61565b6105ce565b005b6101de60048036038101906101d99190611da1565b6106e6565b005b6101e8610746565b6040516101f59190611b5e565b60405180910390f35b61021860048036038101906102139190611da1565b610757565b005b610234600480360381019061022f9190611d0a565b610777565b6040516102419190611d46565b60405180910390f35b610264600480360381019061025f9190611df4565b610829565b6040516102719190611b5e565b60405180910390f35b6102826108e1565b60405161028f9190611cbc565b60405180910390f35b6102b260048036038101906102ad9190611e4d565b610973565b005b6102ce60048036038101906102c99190611f2e565b610af4565b005b6102ea60048036038101906102e59190611d0a565b610b56565b6040516102f79190611cbc565b60405180910390f35b61031a60048036038101906103159190611fb1565b610ca8565b6040516103279190611c19565b60405180910390f35b600082600860006101000a81548173ffffffffffffffffffffffffffffffffffffffff021916908373ffffffffffffffffffffffffffffffffffffffff16021790555061037d6007610d3c565b60006103896007610d52565b90506103953382610d60565b61039f8184610f2e565b6103cb600860009054906101000a900473ffffffffffffffffffffffffffffffffffffffff16826105ce565b8091505092915050565b60007f80ac58cd000000000000000000000000000000000000000000000000000000007bffffffffffffffffffffffffffffffffffffffffffffffffffffffff1916827bffffffffffffffffffffffffffffffffffffffffffffffffffffffff191614806104a057507f5b5e139f000000000000000000000000000000000000000000000000000000007bffffffffffffffffffffffffffffffffffffffffffffffffffffffff1916827bffffffffffffffffffffffffffffffffffffffffffffffffffffffff1916145b806104b057506104af82610fa2565b5b9050919050565b6060600080546104c690612020565b80601f01602080910402602001604051908101604052809291908181526020018280546104f290612020565b801561053f5780601f106105145761010080835404028352916020019161053f565b820191906000526020600020905b81548152906001019060200180831161052257829003601f168201915b5050505050905090565b60006105548261100c565b610593576040517f08c379a000000000000000000000000000000000000000000000000000000000815260040161058a906120c4565b60405180910390fd5b6004600083815260200190815260200160002060009054906101000a900473ffffffffffffffffffffffffffffffffffffffff169050919050565b60006105d982610777565b90508073ffffffffffffffffffffffffffffffffffffffff168373ffffffffffffffffffffffffffffffffffffffff16141561064a576040517f08c379a000000000000000000000000000000000000000000000000000000000815260040161064190612156565b60405180910390fd5b8073ffffffffffffffffffffffffffffffffffffffff16610669611078565b73ffffffffffffffffffffffffffffffffffffffff161480610698575061069781610692611078565b610ca8565b5b6106d7576040517f08c379a00000000000000000000000000000000000000000000000000000000081526004016106ce906121e8565b60405180910390fd5b6106e18383611080565b505050565b6106f76106f1611078565b82611139565b610736576040517f08c379a000000000000000000000000000000000000000000000000000000000815260040161072d9061227a565b60405180910390fd5b610741838383611217565b505050565b60006107526007610d52565b905090565b61077283838360405180602001604052806000815250610af4565b505050565b6000806002600084815260200190815260200160002060009054906101000a900473ffffffffffffffffffffffffffffffffffffffff169050600073ffffffffffffffffffffffffffffffffffffffff168173ffffffffffffffffffffffffffffffffffffffff161415610820576040517f08c379a00000000000000000000000000000000000000000000000000000000081526004016108179061230c565b60405180910390fd5b80915050919050565b60008073ffffffffffffffffffffffffffffffffffffffff168273ffffffffffffffffffffffffffffffffffffffff16141561089a576040517f08c379a00000000000000000000000000000000000000000000000000000000081526004016108919061239e565b60405180910390fd5b600360008373ffffffffffffffffffffffffffffffffffffffff1673ffffffffffffffffffffffffffffffffffffffff168152602001908152602001600020549050919050565b6060600180546108f090612020565b80601f016020809104026020016040519081016040528092919081815260200182805461091c90612020565b80156109695780601f1061093e57610100808354040283529160200191610969565b820191906000526020600020905b81548152906001019060200180831161094c57829003601f168201915b5050505050905090565b61097b611078565b73ffffffffffffffffffffffffffffffffffffffff168273ffffffffffffffffffffffffffffffffffffffff1614156109e9576040517f08c379a00000000000000000000000000000000000000000000000000000000081526004016109e09061240a565b60405180910390fd5b80600560006109f6611078565b73ffffffffffffffffffffffffffffffffffffffff1673ffffffffffffffffffffffffffffffffffffffff16815260200190815260200160002060008473ffffffffffffffffffffffffffffffffffffffff1673ffffffffffffffffffffffffffffffffffffffff16815260200190815260200160002060006101000a81548160ff0219169083151502179055508173ffffffffffffffffffffffffffffffffffffffff16610aa3611078565b73ffffffffffffffffffffffffffffffffffffffff167f17307eab39ab6107e8899845ad3d59bd9653f200f220920489ca2b5937696c3183604051610ae89190611c19565b60405180910390a35050565b610b05610aff611078565b83611139565b610b44576040517f08c379a0000000000000000000000000000000000000000000000000000000008152600401610b3b9061227a565b60405180910390fd5b610b5084848484611473565b50505050565b6060610b618261100c565b610ba0576040517f08c379a0000000000000000000000000000000000000000000000000000000008152600401610b979061249c565b60405180910390fd5b6000600660008481526020019081526020016000208054610bc090612020565b80601f0160208091040260200160405190810160405280929190818152602001828054610bec90612020565b8015610c395780601f10610c0e57610100808354040283529160200191610c39565b820191906000526020600020905b815481529060010190602001808311610c1c57829003601f168201915b505050505090506000610c4a6114cf565b9050600081511415610c60578192505050610ca3565b600082511115610c95578082604051602001610c7d9291906124f8565b60405160208183030381529060405292505050610ca3565b610c9e846114e6565b925050505b919050565b6000600560008473ffffffffffffffffffffffffffffffffffffffff1673ffffffffffffffffffffffffffffffffffffffff16815260200190815260200160002060008373ffffffffffffffffffffffffffffffffffffffff1673ffffffffffffffffffffffffffffffffffffffff16815260200190815260200160002060009054906101000a900460ff16905092915050565b6001816000016000828254019250508190555050565b600081600001549050919050565b600073ffffffffffffffffffffffffffffffffffffffff168273ffffffffffffffffffffffffffffffffffffffff161415610dd0576040517f08c379a0000000000000000000000000000000000000000000000000000000008152600401610dc790612568565b60405180910390fd5b610dd98161100c565b15610e19576040517f08c379a0000000000000000000000000000000000000000000000000000000008152600401610e10906125d4565b60405180910390fd5b610e256000838361158d565b6001600360008473ffffffffffffffffffffffffffffffffffffffff1673ffffffffffffffffffffffffffffffffffffffff1681526020019081526020016000206000828254610e759190612623565b92505081905550816002600083815260200190815260200160002060006101000a81548173ffffffffffffffffffffffffffffffffffffffff021916908373ffffffffffffffffffffffffffffffffffffffff160217905550808273ffffffffffffffffffffffffffffffffffffffff16600073ffffffffffffffffffffffffffffffffffffffff167fddf252ad1be2c89b69c2b068fc378daa952ba7f163c4a11628f55a4df523b3ef60405160405180910390a45050565b610f378261100c565b610f76576040517f08c379a0000000000000000000000000000000000000000000000000000000008152600401610f6d906126eb565b60405180910390fd5b80600660008481526020019081526020016000209080519060200190610f9d92919061188e565b505050565b60007f01ffc9a7000000000000000000000000000000000000000000000000000000007bffffffffffffffffffffffffffffffffffffffffffffffffffffffff1916827bffffffffffffffffffffffffffffffffffffffffffffffffffffffff1916149050919050565b60008073ffffffffffffffffffffffffffffffffffffffff166002600084815260200190815260200160002060009054906101000a900473ffffffffffffffffffffffffffffffffffffffff1673ffffffffffffffffffffffffffffffffffffffff1614159050919050565b600033905090565b816004600083815260200190815260200160002060006101000a81548173ffffffffffffffffffffffffffffffffffffffff021916908373ffffffffffffffffffffffffffffffffffffffff160217905550808273ffffffffffffffffffffffffffffffffffffffff166110f383610777565b73ffffffffffffffffffffffffffffffffffffffff167f8c5be1e5ebec7d5bd14f71427d1e84f3dd0314c0f7b2291e5b200ac8c7c3b92560405160405180910390a45050565b60006111448261100c565b611183576040517f08c379a000000000000000000000000000000000000000000000000000000000815260040161117a9061277d565b60405180910390fd5b600061118e83610777565b90508073ffffffffffffffffffffffffffffffffffffffff168473ffffffffffffffffffffffffffffffffffffffff1614806111fd57508373ffffffffffffffffffffffffffffffffffffffff166111e584610549565b73ffffffffffffffffffffffffffffffffffffffff16145b8061120e575061120d8185610ca8565b5b91505092915050565b8273ffffffffffffffffffffffffffffffffffffffff1661123782610777565b73ffffffffffffffffffffffffffffffffffffffff161461128d576040517f08c379a00000000000000000000000000000000000000000000000000000000081526004016112849061280f565b60405180910390fd5b600073ffffffffffffffffffffffffffffffffffffffff168273ffffffffffffffffffffffffffffffffffffffff1614156112fd576040517f08c379a00000000000000000000000000000000000000000000000000000000081526004016112f4906128a1565b60405180910390fd5b61130883838361158d565b611313600082611080565b6001600360008573ffffffffffffffffffffffffffffffffffffffff1673ffffffffffffffffffffffffffffffffffffffff168152602001908152602001600020600082825461136391906128c1565b925050819055506001600360008473ffffffffffffffffffffffffffffffffffffffff1673ffffffffffffffffffffffffffffffffffffffff16815260200190815260200160002060008282546113ba9190612623565b92505081905550816002600083815260200190815260200160002060006101000a81548173ffffffffffffffffffffffffffffffffffffffff021916908373ffffffffffffffffffffffffffffffffffffffff160217905550808273ffffffffffffffffffffffffffffffffffffffff168473ffffffffffffffffffffffffffffffffffffffff167fddf252ad1be2c89b69c2b068fc378daa952ba7f163c4a11628f55a4df523b3ef60405160405180910390a4505050565b61147e848484611217565b61148a84848484611592565b6114c9576040517f08c379a00000000000000000000000000000000000000000000000000000000081526004016114c090612967565b60405180910390fd5b50505050565b606060405180602001604052806000815250905090565b60606114f18261100c565b611530576040517f08c379a0000000000000000000000000000000000000000000000000000000008152600401611527906129f9565b60405180910390fd5b600061153a6114cf565b9050600081511161155a5760405180602001604052806000815250611585565b806115648461171a565b6040516020016115759291906124f8565b6040516020818303038152906040525b915050919050565b505050565b60006115b38473ffffffffffffffffffffffffffffffffffffffff1661187b565b1561170d578373ffffffffffffffffffffffffffffffffffffffff1663150b7a026115dc611078565b8786866040518563ffffffff1660e01b81526004016115fe9493929190612a6e565b6020604051808303816000875af192505050801561163a57506040513d601f19601f820116820180604052508101906116379190612acf565b60015b6116bd573d806000811461166a576040519150601f19603f3d011682016040523d82523d6000602084013e61166f565b606091505b506000815114156116b5576040517f08c379a00000000000000000000000000000000000000000000000000000000081526004016116ac90612967565b60405180910390fd5b805181602001fd5b63150b7a0260e01b7bffffffffffffffffffffffffffffffffffffffffffffffffffffffff1916817bffffffffffffffffffffffffffffffffffffffffffffffffffffffff191614915050611712565b600190505b949350505050565b60606000821415611762576040518060400160405280600181526020017f30000000000000000000000000000000000000000000000000000000000000008152509050611876565b600082905060005b6000821461179457808061177d90612afc565b915050600a8261178d9190612b74565b915061176a565b60008167ffffffffffffffff8111156117b0576117af6119be565b5b6040519080825280601f01601f1916602001820160405280156117e25781602001600182028036833780820191505090505b5090505b6000851461186f576001826117fb91906128c1565b9150600a8561180a9190612ba5565b60306118169190612623565b60f81b81838151811061182c5761182b612bd6565b5b60200101907effffffffffffffffffffffffffffffffffffffffffffffffffffffffffffff1916908160001a905350600a856118689190612b74565b94506117e6565b8093505050505b919050565b600080823b905060008111915050919050565b82805461189a90612020565b90600052602060002090601f0160209004810192826118bc5760008555611903565b82601f106118d557805160ff1916838001178555611903565b82800160010185558215611903579182015b828111156119025782518255916020019190600101906118e7565b5b5090506119109190611914565b5090565b5b8082111561192d576000816000905550600101611915565b5090565b6000604051905090565b600080fd5b600080fd5b600073ffffffffffffffffffffffffffffffffffffffff82169050919050565b600061197082611945565b9050919050565b61198081611965565b811461198b57600080fd5b50565b60008135905061199d81611977565b92915050565b600080fd5b600080fd5b6000601f19601f8301169050919050565b7f4e487b7100000000000000000000000000000000000000000000000000000000600052604160045260246000fd5b6119f6826119ad565b810181811067ffffffffffffffff82111715611a1557611a146119be565b5b80604052505050565b6000611a28611931565b9050611a3482826119ed565b919050565b600067ffffffffffffffff821115611a5457611a536119be565b5b611a5d826119ad565b9050602081019050919050565b82818337600083830152505050565b6000611a8c611a8784611a39565b611a1e565b905082815260208101848484011115611aa857611aa76119a8565b5b611ab3848285611a6a565b509392505050565b600082601f830112611ad057611acf6119a3565b5b8135611ae0848260208601611a79565b91505092915050565b60008060408385031215611b0057611aff61193b565b5b6000611b0e8582860161198e565b925050602083013567ffffffffffffffff811115611b2f57611b2e611940565b5b611b3b85828601611abb565b9150509250929050565b6000819050919050565b611b5881611b45565b82525050565b6000602082019050611b736000830184611b4f565b92915050565b60007fffffffff0000000000000000000000000000000000000000000000000000000082169050919050565b611bae81611b79565b8114611bb957600080fd5b50565b600081359050611bcb81611ba5565b92915050565b600060208284031215611be757611be661193b565b5b6000611bf584828501611bbc565b91505092915050565b60008115159050919050565b611c1381611bfe565b82525050565b6000602082019050611c2e6000830184611c0a565b92915050565b600081519050919050565b600082825260208201905092915050565b60005b83811015611c6e578082015181840152602081019050611c53565b83811115611c7d576000848401525b50505050565b6000611c8e82611c34565b611c988185611c3f565b9350611ca8818560208601611c50565b611cb1816119ad565b840191505092915050565b60006020820190508181036000830152611cd68184611c83565b905092915050565b611ce781611b45565b8114611cf257600080fd5b50565b600081359050611d0481611cde565b92915050565b600060208284031215611d2057611d1f61193b565b5b6000611d2e84828501611cf5565b91505092915050565b611d4081611965565b82525050565b6000602082019050611d5b6000830184611d37565b92915050565b60008060408385031215611d7857611d7761193b565b5b6000611d868582860161198e565b9250506020611d9785828601611cf5565b9150509250929050565b600080600060608486031215611dba57611db961193b565b5b6000611dc88682870161198e565b9350506020611dd98682870161198e565b9250506040611dea86828701611cf5565b9150509250925092565b600060208284031215611e0a57611e0961193b565b5b6000611e188482850161198e565b91505092915050565b611e2a81611bfe565b8114611e3557600080fd5b50565b600081359050611e4781611e21565b92915050565b60008060408385031215611e6457611e6361193b565b5b6000611e728582860161198e565b9250506020611e8385828601611e38565b9150509250929050565b600067ffffffffffffffff821115611ea857611ea76119be565b5b611eb1826119ad565b9050602081019050919050565b6000611ed1611ecc84611e8d565b611a1e565b905082815260208101848484011115611eed57611eec6119a8565b5b611ef8848285611a6a565b509392505050565b600082601f830112611f1557611f146119a3565b5b8135611f25848260208601611ebe565b91505092915050565b60008060008060808587031215611f4857611f4761193b565b5b6000611f568782880161198e565b9450506020611f678782880161198e565b9350506040611f7887828801611cf5565b925050606085013567ffffffffffffffff811115611f9957611f98611940565b5b611fa587828801611f00565b91505092959194509250565b60008060408385031215611fc857611fc761193b565b5b6000611fd68582860161198e565b9250506020611fe78582860161198e565b9150509250929050565b7f4e487b7100000000000000000000000000000000000000000000000000000000600052602260045260246000fd5b6000600282049050600182168061203857607f821691505b6020821081141561204c5761204b611ff1565b5b50919050565b7f4552433732313a20617070726f76656420717565727920666f72206e6f6e657860008201527f697374656e7420746f6b656e0000000000000000000000000000000000000000602082015250565b60006120ae602c83611c3f565b91506120b982612052565b604082019050919050565b600060208201905081810360008301526120dd816120a1565b9050919050565b7f4552433732313a20617070726f76616c20746f2063757272656e74206f776e6560008201527f7200000000000000000000000000000000000000000000000000000000000000602082015250565b6000612140602183611c3f565b915061214b826120e4565b604082019050919050565b6000602082019050818103600083015261216f81612133565b9050919050565b7f4552433732313a20617070726f76652063616c6c6572206973206e6f74206f7760008201527f6e6572206e6f7220617070726f76656420666f7220616c6c0000000000000000602082015250565b60006121d2603883611c3f565b91506121dd82612176565b604082019050919050565b60006020820190508181036000830152612201816121c5565b9050919050565b7f4552433732313a207472616e736665722063616c6c6572206973206e6f74206f60008201527f776e6572206e6f7220617070726f766564000000000000000000000000000000602082015250565b6000612264603183611c3f565b915061226f82612208565b604082019050919050565b6000602082019050818103600083015261229381612257565b9050919050565b7f4552433732313a206f776e657220717565727920666f72206e6f6e657869737460008201527f656e7420746f6b656e0000000000000000000000000000000000000000000000602082015250565b60006122f6602983611c3f565b91506123018261229a565b604082019050919050565b60006020820190508181036000830152612325816122e9565b9050919050565b7f4552433732313a2062616c616e636520717565727920666f7220746865207a6560008201527f726f206164647265737300000000000000000000000000000000000000000000602082015250565b6000612388602a83611c3f565b91506123938261232c565b604082019050919050565b600060208201905081810360008301526123b78161237b565b9050919050565b7f4552433732313a20617070726f766520746f2063616c6c657200000000000000600082015250565b60006123f4601983611c3f565b91506123ff826123be565b602082019050919050565b60006020820190508181036000830152612423816123e7565b9050919050565b7f45524337323155524953746f726167653a2055524920717565727920666f722060008201527f6e6f6e6578697374656e7420746f6b656e000000000000000000000000000000602082015250565b6000612486603183611c3f565b91506124918261242a565b604082019050919050565b600060208201905081810360008301526124b581612479565b9050919050565b600081905092915050565b60006124d282611c34565b6124dc81856124bc565b93506124ec818560208601611c50565b80840191505092915050565b600061250482856124c7565b915061251082846124c7565b91508190509392505050565b7f4552433732313a206d696e7420746f20746865207a65726f2061646472657373600082015250565b6000612552602083611c3f565b915061255d8261251c565b602082019050919050565b6000602082019050818103600083015261258181612545565b9050919050565b7f4552433732313a20746f6b656e20616c7265616479206d696e74656400000000600082015250565b60006125be601c83611c3f565b91506125c982612588565b602082019050919050565b600060208201905081810360008301526125ed816125b1565b9050919050565b7f4e487b7100000000000000000000000000000000000000000000000000000000600052601160045260246000fd5b600061262e82611b45565b915061263983611b45565b9250827fffffffffffffffffffffffffffffffffffffffffffffffffffffffffffffffff0382111561266e5761266d6125f4565b5b828201905092915050565b7f45524337323155524953746f726167653a2055524920736574206f66206e6f6e60008201527f6578697374656e7420746f6b656e000000000000000000000000000000000000602082015250565b60006126d5602e83611c3f565b91506126e082612679565b604082019050919050565b60006020820190508181036000830152612704816126c8565b9050919050565b7f4552433732313a206f70657261746f7220717565727920666f72206e6f6e657860008201527f697374656e7420746f6b656e0000000000000000000000000000000000000000602082015250565b6000612767602c83611c3f565b91506127728261270b565b604082019050919050565b600060208201905081810360008301526127968161275a565b9050919050565b7f4552433732313a207472616e73666572206f6620746f6b656e2074686174206960008201527f73206e6f74206f776e0000000000000000000000000000000000000000000000602082015250565b60006127f9602983611c3f565b91506128048261279d565b604082019050919050565b60006020820190508181036000830152612828816127ec565b9050919050565b7f4552433732313a207472616e7366657220746f20746865207a65726f2061646460008201527f7265737300000000000000000000000000000000000000000000000000000000602082015250565b600061288b602483611c3f565b91506128968261282f565b604082019050919050565b600060208201905081810360008301526128ba8161287e565b9050919050565b60006128cc82611b45565b91506128d783611b45565b9250828210156128ea576128e96125f4565b5b828203905092915050565b7f4552433732313a207472616e7366657220746f206e6f6e20455243373231526560008201527f63656976657220696d706c656d656e7465720000000000000000000000000000602082015250565b6000612951603283611c3f565b915061295c826128f5565b604082019050919050565b6000602082019050818103600083015261298081612944565b9050919050565b7f4552433732314d657461646174613a2055524920717565727920666f72206e6f60008201527f6e6578697374656e7420746f6b656e0000000000000000000000000000000000602082015250565b60006129e3602f83611c3f565b91506129ee82612987565b604082019050919050565b60006020820190508181036000830152612a12816129d6565b9050919050565b600081519050919050565b600082825260208201905092915050565b6000612a4082612a19565b612a4a8185612a24565b9350612a5a818560208601611c50565b612a63816119ad565b840191505092915050565b6000608082019050612a836000830187611d37565b612a906020830186611d37565b612a9d6040830185611b4f565b8181036060830152612aaf8184612a35565b905095945050505050565b600081519050612ac981611ba5565b92915050565b600060208284031215612ae557612ae461193b565b5b6000612af384828501612aba565b91505092915050565b6000612b0782611b45565b91507fffffffffffffffffffffffffffffffffffffffffffffffffffffffffffffffff821415612b3a57612b396125f4565b5b600182019050919050565b7f4e487b7100000000000000000000000000000000000000000000000000000000600052601260045260246000fd5b6000612b7f82611b45565b9150612b8a83611b45565b925082612b9a57612b99612b45565b5b828204905092915050565b6000612bb082611b45565b9150612bbb83611b45565b925082612bcb57612bca612b45565b5b828206905092915050565b7f4e487b7100000000000000000000000000000000000000000000000000000000600052603260045260246000fdfea2646970667358221220283e4a86f11a38ecb41df5fc4619df9189e5647106e3175fbfac1f89e4bd1dc964736f6c634300080c0033",
  "immutableReferences": {},
  "source": "pragma solidity ^0.8.0;\n\nimport \"@openzeppelin/contracts/utils/Counters.sol\";\nimport \"@openzeppelin/contracts/token/ERC721/extensions/ERC721URIStorage.sol\";\nimport \"@openzeppelin/contracts/security/ReentrancyGuard.sol\";\nimport \"@openzeppelin/contracts/token/ERC721/ERC721.sol\";\n\ncontract CodeNFT is ERC721URIStorage {\n    using Counters for Counters.Counter;\n    Counters.Counter private _tokenIds;\n    address contractAddress;\n\n    constructor() ERC721(\"Code NFT\", \"CODE\") {\n    }\n\n    function createToken(address marketplaceAddress, string memory tokenURI) public returns (uint) {\n        contractAddress = marketplaceAddress;\n        _tokenIds.increment();\n        uint256 newItemId = _tokenIds.current();\n\n        _mint(msg.sender, newItemId);\n        _setTokenURI(newItemId, tokenURI);\n        approve(contractAddress, newItemId);\n        return newItemId;\n    }\n    \n    function getLatestTokenId() public view returns (uint256) {\n        return _tokenIds.current();\n    }\n}\n\ncontract CodeNFTMarket is ReentrancyGuard {\n  using Counters for Counters.Counter;\n  Counters.Counter private _itemIds;\n  Counters.Counter private _itemsSold;\n\n  address payable owner;\n  uint256 listingPrice = 0.1 ether;\n\n  constructor() {\n    owner = payable(msg.sender);\n  }\n\n  struct MarketItem {\n    uint itemId;\n    address nftContract;\n    uint256 tokenId;\n    address payable seller;\n    address payable owner;\n    uint256 price;\n  }\n\n  mapping(uint256 => MarketItem) private idToMarketItem;\n\n  event MarketItemCreated (\n    uint indexed itemId,\n    address indexed nftContract,\n    uint256 indexed tokenId,\n    address seller,\n    address owner,\n    uint256 price\n  );\n\n  function getMarketItem(uint256 marketItemId) public view returns (MarketItem memory) {\n    return idToMarketItem[marketItemId];\n  }\n\n  \n\n  event Message (\n      address from,\n     uint256 tokenId  \n  );\n\n\n  function createMarketItem(\n    address nftContract,\n    uint256 tokenId,\n    uint256 price\n  ) public payable nonReentrant {\n    require(price > 0, \"Price must be at least 1 wei\");\n    // require(msg.value == listingPrice, \"Price must be equal to listing price\");\n\n    emit Message(msg.sender, tokenId);\n    _itemIds.increment();\n    uint256 itemId = _itemIds.current();\n  \n    IERC721(nftContract).transferFrom(msg.sender, address(this), tokenId);\n\n    idToMarketItem[itemId] =  MarketItem(\n      itemId,\n      nftContract,\n      tokenId,\n      payable(msg.sender),\n      payable(address(0)),\n      price\n    );\n\n\n    emit MarketItemCreated(\n      itemId,\n      nftContract,\n      tokenId,\n      msg.sender,\n      address(0),\n      price\n    );\n  }\n\n  function createMarketSale(\n    address nftContract,\n    uint256 itemId\n    ) public payable nonReentrant {\n    uint price = idToMarketItem[itemId].price;\n    uint tokenId = idToMarketItem[itemId].tokenId;\n    require(msg.value == price, \"Please submit the asking price in order to complete the purchase\");\n\n    idToMarketItem[itemId].seller.transfer(msg.value);\n    IERC721(nftContract).transferFrom(address(this), msg.sender, tokenId);\n    idToMarketItem[itemId].owner = payable(msg.sender);\n    _itemsSold.increment();\n    payable(owner).transfer(listingPrice);\n  }\n\n  function fetchMarketItems() public view returns (MarketItem[] memory) {\n    uint itemCount = _itemIds.current();\n    uint unsoldItemCount = _itemIds.current() - _itemsSold.current();\n    uint currentIndex = 0;\n\n    MarketItem[] memory items = new MarketItem[](unsoldItemCount);\n    for (uint i = 0; i < itemCount; i++) {\n      if (idToMarketItem[i + 1].owner == address(0)) {\n        uint currentId = i + 1;\n        MarketItem storage currentItem = idToMarketItem[currentId];\n        items[currentIndex] = currentItem;\n        currentIndex += 1;\n      }\n    }\n   \n    return items;\n  }\n\n  function fetchMyNFTs() public view returns (MarketItem[] memory) {\n    uint totalItemCount = _itemIds.current();\n    uint itemCount = 0;\n    uint currentIndex = 0;\n\n    for (uint i = 0; i < totalItemCount; i++) {\n      if (idToMarketItem[i + 1].owner == msg.sender) {\n        itemCount += 1;\n      }\n    }\n\n    MarketItem[] memory items = new MarketItem[](itemCount);\n    for (uint i = 0; i < totalItemCount; i++) {\n      if (idToMarketItem[i + 1].owner == msg.sender) {\n        uint currentId = i + 1;\n        MarketItem storage currentItem = idToMarketItem[currentId];\n        items[currentIndex] = currentItem;\n        currentIndex += 1;\n      }\n    }\n   \n    return items;\n  }\n}",
  "sourcePath": "/Users/osfy/Documents/Web3Projects/CodeNFT/contracts/CodeNFT.sol",
  "compiler": {
    "name": "solc",
    "version": "0.8.12+commit.f00d7308.Emscripten.clang"
  },
  "schemaVersion": "3.4.1",
  "updatedAt": "2022-03-14T02:21:40.492Z",
  "networkType": "ethereum",
  "devdoc": {
    "kind": "dev",
    "methods": {
      "approve(address,uint256)": {
        "details": "See {IERC721-approve}."
      },
      "balanceOf(address)": {
        "details": "See {IERC721-balanceOf}."
      },
      "getApproved(uint256)": {
        "details": "See {IERC721-getApproved}."
      },
      "isApprovedForAll(address,address)": {
        "details": "See {IERC721-isApprovedForAll}."
      },
      "name()": {
        "details": "See {IERC721Metadata-name}."
      },
      "ownerOf(uint256)": {
        "details": "See {IERC721-ownerOf}."
      },
      "safeTransferFrom(address,address,uint256)": {
        "details": "See {IERC721-safeTransferFrom}."
      },
      "safeTransferFrom(address,address,uint256,bytes)": {
        "details": "See {IERC721-safeTransferFrom}."
      },
      "setApprovalForAll(address,bool)": {
        "details": "See {IERC721-setApprovalForAll}."
      },
      "supportsInterface(bytes4)": {
        "details": "See {IERC165-supportsInterface}."
      },
      "symbol()": {
        "details": "See {IERC721Metadata-symbol}."
      },
      "tokenURI(uint256)": {
        "details": "See {IERC721Metadata-tokenURI}."
      },
      "transferFrom(address,address,uint256)": {
        "details": "See {IERC721-transferFrom}."
      }
    },
    "version": 1
  },
  "userdoc": {
    "kind": "user",
    "methods": {},
    "version": 1
  }
}